S01F000050726F6A656374536B656C65746F6E44656D6F323536302E7372656397
S113000071C00000B5C10000CEC20000E5C100000F
S11300102BC2000086C0000084C0000082C0000023
S113002080C000007EC000007CC000007AC00000D8
S113003078C000006AC2000074C0000072C00000F2
S113004070C000006EC000006CC000006AC00000F8
S113005068C0000066C0000064C0000062C0000008
S113006060C000005EC000005CC000005AC0000018
S113007058C000005DC3000054C0000052C000001E
S113008050C000004EC000004CC000004AC0000038
S113009048C0000046C0000044C0000042C0000048
S11300A040C000003EC000003CC000003AC0000058
S11300B038C0000036C0000034C0000032C0000068
S11300C030C000002EC000002CC000002AC0000078
S11300D028C0000026C0000024C0000022C0000088
S11300E020C0000011241FBECFEFD1E2DEBFCDBF80
S11300F000E00CBF12E0A0E0B2E0EAE1F1E100E0D0
S11301000BBF02C007900D92AC35B107D9F722E0BE
S1130110ACE5B2E001C01D92A938B207E1F726D5DB
S1130120FAC7FDC087B1807F87B9459A469882E0B7
S11301308A95F1F700C0479A92E09A95F1F700C0CA
S113014086B18295807F92E09A95F1F700C0479836
S113015095E09A95F1F70000479A92E09A95F1F7A5
S113016000C096B192E09A95F1F700C0479895E0E7
S11301709A95F1F700008823F4F2459887B18F60CF
S113018087B90895282F22952F708F70611102C0AE
S1130190469801C0469A92E09A95F1F700C0479AB2
S11301A098B1907F922B98B995E09A95F1F7000059
S11301B0479895E09A95F1F70000479A98B1907F97
S11301C0892B88B985E08A95F1F70000479895E076
S11301D09A95F1F70000A6CF0895CF93C82F2FEF7B
S11301E086E791E0215080409040E1F700C0000094
S11301F087B18F6087B93F9A3E9A3D9A88B1807FD4
S113020088B947984598469800C000C00000479AAE
S1130210419A25E02A95F1F70000479885E08A95F0
S1130220F1F700007FDF60E08C2F8C60ABDF60E0D3
S113023088E2A8DFCF910895CF93DF93EC01888102
S1130240882331F0219661E09DDF89918111FBCFF4
S1130250DF91CF910895EF92FF920F931F93CF9365
S1130260DF9300D01F921F92CDB7DEB77B01FE0152
S1130270319625E0DF011D922A95E9F7009751F0A8
S113028035962AE030E0B901FED58293862F972F68
S11302900097C9F7BFEFEB16FB0669F4898181115A
S11302A01DC0FE01329600E010E00F5F1F4F8191E8
S11302B08823D9F30FC005E010E00E191F090AC006
S11302C0F80181918F0161E0805D5CDF0E151F05EF
S11302D0B9F711C0053011051CF00DC000E010E0A5
S11302E081E090E08C0F9D1F080F191F7E0196E09E
S11302F0E90EF11CE5CF0F900F900F900F900F9027
S1130300DF91CF911F910F91FF90EF900895883264
S113031028F46111806460E0806834CF08951F92EE
S11303200F920FB60F9211248FEF80930B01FFCF22
S1130330AC01E1E8F0E090819860908388EE93E06E
S11303409093890080938800109285001092840015
S1130350B19A20E030E005C0B19BFECFB19A2F5F87
S11303603F4F241735071CF4B19BF6CFF7CF089500
S11303701F920F920FB60F9211240BB60F922F9368
S11303803F934F935F936F937F938F939F93AF9319
S1130390BF93EF93FF9384E190E0CADF489B09C0C9
S11303A081E090E090935F0280935E0283E080930B
S11303B07E02FF91EF91BF91AF919F918F917F91B9
S11303C06F915F914F913F912F910F900BBE0F90C2
S11303D00FBE0F901F9018951F920F920FB60F9299
S11303E011240BB60F922F933F934F935F936F9308
S11303F07F938F939F93AF93BF93EF93FF9381E08A
S113040090E096DF8091740290917502019690932A
S11304107502809374028FEF9FEF90931F02809375
S11304201E024A9B0BC0809106029091070201971D
S113043029F4EAE7F0E080818064808382E080939D
S11304407E02FF91EF91BF91AF919F918F917F9128
S11304506F915F914F913F912F910F900BBE0F9031
S11304600FBE0F901F9018951F920F920FB60F9208
S113047011240BB60F922F933F934F935F936F9377
S11304807F938F939F93AF93BF93EF93FF9384E1F5
S113049090E04EDF4B9912C08091680290916902FE
S11304A00196909369028093680281E090E09093B2
S11304B009028093080283E080937E02FF91EF910A
S11304C0BF91AF919F918F917F916F915F914F9168
S11304D03F912F910F900BBE0F900FBE0F901F9066
S11304E01895E1EBF0E080818860808388EE80934A
S11304F0B3001092B200A0E7B0E08C9182608C93BC
S1130500808182608083B99A08951F920F920FB6FA
S11305100F9211240BB60F922F933F934F935F9337
S11305206F937F938F939F93AF93BF93EF93FF93B7
S113053080915C0290915D02893C91052CF015B884
S113054083E080937E020CC080915C0290915D02F6
S1130550019690935D0280935C0281E090E0C1DF9C
S1130560FF91EF91BF91AF919F918F917F916F9187
S11305705F914F913F912F910F900BBE0F900FBE43
S11305800F901F90189583E884BD83E085BD86E6AF
S113059087BD089580E785B981E090E090930702D4
S11305A08093060208951F920F920FB60F921124A2
S11305B00BB60F922F933F934F935F936F937F9359
S11305C08F939F93AF93BF93EF93FF9384E190E056
S11305D0AFDE49994DC080910602909107020197C0
S11305E009F046C084E190E0A3DE15B8109207023A
S11305F01092060260E081E0C5DD60E080E087DE05
S113060080E292E019DE61E080E081DE8091700298
S11306109091710262E070E01EDE61E083E077DEBB
S113062080916E0290916F0262E070E014DE61E0EE
S113063086E06DDE80916C0290916D0262E070E064
S11306400ADE61E089E063DE80916A0290916B02C8
S113065062E070E000DE61E08CE059DE80917402BB
S11306609091750262E070E0F6DD499BFECF1AC0FE
S1130670499918C08091060290910702892B91F440
S113068084E190E055DE86DF60E081E07BDD60E0C0
S113069080E03DDE8FE292E0CFDD83E080937E0256
S11306A0499BFECFFF91EF91BF91AF919F918F91A5
S11306B07F916F915F914F913F912F910F900BBE5E
S11306C00F900FBE0F901F90189588E385B9109274
S11306D00702109206020895CF93DF93EC0184E0A1
S11306E090E0F8D399838883FC0113821282DF910E
S11306F0CF910895DB01ED91FC91309761F0DA011F
S11307008D919C911197938382838D919C91FB0190
S1130710918380830895DA012D913C911197FC0116
S1130720318320838D919C91DB018D939C9308955B
S11307301F920F920FB60F9211240BB60F922F93A4
S11307403F934F935F936F937F938F939F93AF9355
S1130750BF93EF93FF93CF93DF931F921F92CDB775
S1130760DEB78091780090E09093840280938302B6
S11307708091790090E0982F88279093800280934D
S11307807F02209183023091840280917F029091B4
S11307908002820F931F90937302809372022091C0
S11307A072023091730280911E0290911F022817E9
S11307B0390740F4809172029091730290931F0262
S11307C080931E024A9B0CC08091060290910702FE
S11307D0019731F4EAE7F0E080818064808396C079
S11307E0CE01019679DF20911E0230911F02809183
S11307F01C0290911D0228173907D4F020911E0283
S113080030911F0280911A0290911B028217930764
S11308107CF0E981FA8181E090E091838083AE01EC
S11308204F5F5F4F6AE772E08CE792E063DF6EC070
S113083020911E0230911F0280911802909119029A
S113084028173907D4F020911E0230911F0280919D
S1130850160290911702821793077CF0E981FA81BE
S113086082E090E091838083AE014F5F5F4F6AE73F
S113087072E08CE792E03EDF49C020911E02309185
S11308801F02809114029091150228173907D4F0A1
S113089020911E0230911F02809112029091130246
S11308A0821793077CF0E981FA8183E090E09183D9
S11308B08083AE014F5F5F4F6AE772E08CE792E09E
S11308C019DF24C020911E0230911F028091100272
S11308D09091110228173907CCF020911E02309113
S11308E01F0280910E0290910F028217930774F0F9
S11308F0E981FA8184E090E091838083AE014F5FC7
S11309005F4F6AE772E08CE792E0F4DE0F900F909D
S1130910DF91CF91FF91EF91BF91AF919F918F9113
S11309207F916F915F914F913F912F910F900BBEEB
S11309300F900FBE0F901F901895FC01808191813C
S1130940DA018D939C93A081B181109741F01296A6
S11309508D919C91139791838083892B19F4FB01CA
S113096011821082089520910C0230910D02809121
S1130970640290916502820F931F909365028093A5
S1130980640220910C0230910D02809162029091D8
S11309906302820F931F909363028093620280919B
S11309A0640290916502049721F4109265021092FA
S11309B064028091640290916502019631F483E0AF
S11309C090E09093650280936402E0916402F09158
S11309D06502EE0FFF1FEC5AFD4F808182B98091B2
S11309E0620290916302893C910531F481E090E0C8
S11309F090936302809362028091620290916302F9
S1130A00892B31F488EC90E0909363028093620226
S1130A108091600290916102019731F480910A0201
S1130A2090910B0285CC089584E190E081CC0895E7
S1130A3021E030E030936102209360022091620251
S1130A4030916302821B930B9C018436910514F050
S1130A50285C31092C398FEF380714F428533F4FA1
S1130A60F901332324F4EE27FF27E21BF30BC9011A
S1130A70BF0109D270930D0260930C0234977CF08D
S1130A8080910A0290910B0207974CF080910A0220
S1130A9090910B02019790930B0280930A02275FB7
S1130AA03F4F2331310578F480910A0290910B0273
S1130AB044974CF480910A0290910B020196909312
S1130AC00B0280930A020895E1E6F0E080E8808357
S1130AD081E08083E1E8F0E080818260808383E0CC
S1130AE07CDB60E081E04EDB60E080E010DC89E3E9
S1130AF092E0A2DB10927E021092790210927802A8
S1130B00109282021092810210927D0210927C0255
S1130B1010927B0210927A021AB88FEF87B984B9C7
S1130B2080930A018FE381B9F894E89AE9E6F0E04A
S1130B30808183608083E99A808188608083EA9AD7
S1130B40808180638083EB9A808180688083EAE778
S1130B50F0E0808188688083808185608083ECE711
S1130B60F0E080818064808378940895ADDF0BDDAC
S1130B70079B03C0F8DE0799FDCF84EF91E0D8DB33
S1130B808FEF9FEF90930D0280930C02C4E0D0E0AE
S1130B90EADE84EF91E0CCDB2197D1F788EC90E09A
S1130BA0909363028093620260E081E0EBDA60E09C
S1130BB080E0ADDB8FE292E03FDBECDCC0E1D0E033
S1130BC080917E02823069F018F4813039F0F8CFD8
S1130BD0833051F0853009F417C1F2CF10927E02B0
S1130BE0EFCF10927E02ECCF80910802909109021F
S1130BF0019709F0EDC048E752E06AE772E08CE73C
S1130C0092E09BDED0930B02C0930A02E09178023B
S1130C10F0917902808191818130910571F5809103
S1130C207002909171020196909371028093700208
S1130C308091620290916302C29709F4B7C045DDC6
S1130C408EE190E075DB15B810920702109206024F
S1130C508091620290916302C29751F082E390E026
S1130C60E7DE81DE8091620290916302C297B1F760
S1130C7091DC84E190E05CDB99C08230910589F5D8
S1130C8080916E0290916F02019690936F0280930F
S1130C906E0280916202909163028639910509F493
S1130CA085C013DD8EE190E043DB15B81092070296
S1130CB01092060280916202909163028639910536
S1130CC059F086E990E0B4DE4EDE809162029091A4
S1130CD0630286399105A9F75DDC84E190E028DBA5
S1130CE065C08330910589F580916C0290916D0205
S1130CF0019690936D0280936C02809162029091B0
S1130D0063028436910509F451C0DFDC8EE190E082
S1130D100FDB15B81092070210920602809162024E
S1130D20909163028436910559F084E690E080DE68
S1130D301ADE809162029091630284369105A9F7CC
S1130D4029DC84E190E0F4DA31C0049779F58091EC
S1130D506A0290916B02019690936B0280936A02EF
S1130D608091620290916302883C9105F9F0ADDCB8
S1130D708EE190E0DDDA15B81092070210920602B7
S1130D808091620290916302883C910559F088EC4D
S1130D9090E04EDEE8DD8091620290916302883C2F
S1130DA09105A9F7F7DB84E190E0C2DA809174023F
S1130DB090917502019790937502809374028091CB
S1130DC07802909179021ED11092090210920802C1
S1130DD020916802309169028091660290916702C5
S1130DE02817390719F410927E02EACE209168027E
S1130DF03091690280916602909167022817390741
S1130E0019F083E080937E0215B860E081E0BAD9DE
S1130E1060E080E07CDA81E492E00EDA80ED97E035
S1130E2087DA60E081E0AED960E080E070DA88E4DF
S1130E3092E002DA61E080E06ADA809170029091D7
S1130E40710262E070E007DA61E083E060DA8091C9
S1130E506E0290916F0262E070E0FDD961E086E07D
S1130E6056DA80916C0290916D0262E070E0F3D9E1
S1130E7061E089E04CDA80916A0290916B0262E051
S1130E8070E0E9D9FFCF97FB072E16F4009406D043
S1130E9077FD08D00BD007FC05D03EF490958195E2
S1130EA09F4F0895709561957F4F0895AA1BBB1BB2
S1130EB051E107C0AA1FBB1FA617B70710F0A61B56
S1130EC0B70B881F991F5A95A9F780959095BC0177
S1130ED0CD0108950F931F93CF93DF938230910533
S1130EE010F482E090E0E0918702F091880220E023
S1130EF030E0A0E0B0E0309719F1408151810281E7
S1130F00138148175907C8F08417950769F4109797
S1130F1031F012960C93129713961C9327C00093EA
S1130F2087021093880222C02115310519F0421757
S1130F30530718F49A01BD01EF01DF01F801DBCF7B
S1130F4021153105F9F0281B390B2430310580F4C3
S1130F508A819B816115710521F0FB019383828352
S1130F6004C09093880280938702FE01329644C0A5
S1130F70FE01E20FF31F81939193225031093983CB
S1130F8028833AC02091850230918602232B41F4B4
S1130F90209102023091030230938602209385024D
S1130FA020910002309101022115310541F42DB741
S1130FB03EB74091040250910502241B350BE09189
S1130FC08502F0918602E217F307A0F42E1B3F0B73
S1130FD02817390778F0AC014E5F5F4F24173507A7
S1130FE048F04E0F5F1F5093860240938502819311
S1130FF0919302C0E0E0F0E0CF01DF91CF911F9127
S11310000F910895CF93DF93009709F481C0FC01F9
S1131010329713821282A0918702B09188021097AE
S113102081F420813181820F931F209185023091B8
S113103086022817390751F5F0938602E09385025A
S113104067C0ED0120E030E0CE17DF0740F44A81AD
S11310505B819E0141155105F1F0EA01F5CFD3837F
S1131060C28340815181840F951FC817D90759F451
S113107088819981840F951F0296918380838A8148
S11310809B81938382832115310529F4F09388028F
S1131090E09387023DC0E901FB83EA8349915991BA
S11310A0C40FD51FEC17FD0761F480819181840F73
S11310B0951F0296E90199838883828193819B839A
S11310C08A83E0E0F0E012968D919C91139700974B
S11310D019F0FD01DC01F7CF8D919C9111979D01D1
S11310E02E5F3F4F820F931F20918502309186021D
S11310F02817390769F4309729F41092880210925E
S1131100870202C013821282B0938602A0938502E2
S10D1110DF91CF910895F894FFCF0A
S113111A0000890220000100010010000100FF0301
S113112ACF03CE03480347038D018C010000FFFF60
S113113A413A20533A20573A20423A20503A006919
S113114A20536F5274203A290069207354615274EF
S113115A006920646F6E6500413A20533A20573A79
S10F116A20423A0036002E002D00350013
S9030000FC
