:1000000071C000008EC000008CC00000F5C100006F
:1000100040C2000086C0000084C0000082C0000012
:1000200080C000007EC000007CC000007AC00000DC
:1000300078C0000076C0000074C0000072C00000EC
:1000400070C000006EC000006CC000006AC00000FC
:1000500068C0000066C0000064C0000062C000000C
:1000600060C000005EC000005CC000005AC000001C
:1000700058C0000056C0000054C0000052C000002C
:1000800050C000004EC000004CC000004AC000003C
:1000900048C0000046C0000044C0000042C000004C
:1000A00040C000003EC000003CC000003AC000005C
:1000B00038C0000036C0000034C0000032C000006C
:1000C00030C000002EC000002CC000002AC000007C
:1000D00028C0000026C0000024C0000022C000008C
:1000E00020C0000011241FBECFEFD1E2DEBFCDBF84
:1000F00000E00CBF12E0A0E0B2E0EEE7F5E000E0C7
:100100000BBF02C007900D92AA30B107D9F722E0C9
:10011000AAE0B2E001C01D92AD30B207E1F7FFD016
:100120002CC240C187B1807F87B9459A469882E04A
:100130008A95F1F700C0479A92E09A95F1F700C0CE
:1001400086B18295807F92E09A95F1F700C047983A
:1001500095E09A95F1F70000479A92E09A95F1F7A9
:1001600000C096B192E09A95F1F700C0479895E0EB
:100170009A95F1F700008823F4F2459887B18F60D3
:1001800087B90895282F22952F708F70611102C0B2
:10019000469801C0469A92E09A95F1F700C0479AB6
:1001A00098B1907F922B98B995E09A95F1F700005D
:1001B000479895E09A95F1F70000479A98B1907F9B
:1001C000892B88B985E08A95F1F70000479895E07A
:1001D0009A95F1F70000A6CF0895CF93C82F2FEF7F
:1001E00086E791E0215080409040E1F700C0000098
:1001F00087B18F6087B93F9A3E9A3D9A88B1807FD8
:1002000088B947984598469800C000C00000479AB2
:10021000419A25E02A95F1F70000479885E08A95F4
:10022000F1F700007FDF60E08C2F8C60ABDF60E0D7
:1002300088E2A8DFCF910895CF93DF93EC01888106
:10024000882331F0219661E09DDF89918111FBCFF8
:10025000DF91CF910895EF92FF920F931F93CF9369
:10026000DF9300D01F921F92CDB7DEB77B01FE0156
:10027000319625E0DF011D922A95E9F7009751F0AC
:1002800035962AE030E0B90151D18293862F972F1D
:100290000097C9F7BFEFEB16FB0669F4898181115E
:1002A0001DC0FE01329600E010E00F5F1F4F8191EC
:1002B0008823D9F30FC005E010E00E191F090AC00A
:1002C000F80181918F0161E0805D5CDF0E151F05F3
:1002D000B9F711C0053011051CF00DC000E010E0A9
:1002E00081E090E08C0F9D1F080F191F7E0196E0A2
:1002F000E90EF11CE5CF0F900F900F900F900F902B
:10030000DF91CF911F910F91FF90EF900895883268
:1003100028F46111806460E0806834CF0895E1E6DC
:10032000F0E080E8808381E08083E1E8F0E0808194
:100330008260808383E051DF10920C02F89480EF9A
:100340008AB98FEF87B9EA9AE9E6F0E080818063A5
:100350008083EB9A808180688083789438E021E004
:1003600094E088B1806F88B980910C02823069F086
:1003700018F4813031F0F5CF833059F0853069F0D1
:10038000F0CF28B910920C02ECCF98B910920C0261
:10039000E8CF38B910920C02E4CF80EF88B980E042
:1003A00090E008951F920F920FB60F9211240F90B4
:1003B0000FBE0F901F901895AC01E1E8F0E090811E
:1003C0009860908388EE93E09093890080938800F2
:1003D0001092850010928400B19A20E030E005C0B0
:1003E000B19BFECFB19A2F5F3F4F241735071CF406
:1003F000B19BF6CFF7CF08951F920F920FB60F92D1
:1004000011240BB60F922F933F934F935F936F93EB
:100410007F938F939F93AF93BF93EF93FF9384E169
:1004200090E0CADF4A9B22C082E080930C02809158
:100430000A0290910B02019690930B0280930A029C
:1004400060E081E09FDE60E080E061DF80E092E0DC
:10045000F3DE60E089E05BDF80910A0290910B029D
:1004600065E070E0F8DE82E390E0A6DFFF91EF91B7
:10047000BF91AF919F918F917F916F915F914F91BC
:100480003F912F910F900BBE0F900FBE0F901F90BA
:1004900018951F920F920FB60F9211240BB60F9260
:1004A0002F933F934F935F936F937F938F939F937C
:1004B000AF93BF93EF93FF9384E190E07DDF4B997F
:1004C00022C083E080930C0280910A0290910B027B
:1004D000019790930B0280930A0260E081E052DE64
:1004E00060E080E014DF80E092E0A6DE60E089E07A
:1004F0000EDF80910A0290910B0265E070E0ABDEA6
:1005000082E390E059DFFF91EF91BF91AF919F910E
:100510008F917F916F915F914F913F912F910F90AC
:100520000BBE0F900FBE0F901F90189597FB072ED4
:1005300016F4009406D077FD08D00BD007FC05D048
:100540003EF4909581959F4F0895709561957F4FEA
:100550000895AA1BBB1B51E107C0AA1FBB1FA6170A
:10056000B70710F0A61BB70B881F991F5A95A9F75C
:0E05700080959095BC01CD010895F894FFCFC1
:0A057E00436F756E7465723D000056
:00000001FF
