:1000000071C000003DC200008AC10000E4C10000D0
:1000100005C5000086C0000084C0000082C000004A
:1000200080C000007EC000007CC000007AC00000DC
:1000300078C0000076C0000074C0000072C00000EC
:1000400070C000006EC000006CC000006AC00000FC
:1000500068C0000066C0000064C0000062C000000C
:1000600060C000005EC000005CC000005AC000001C
:1000700058C000009FC2000054C0000052C00000E1
:1000800050C000004EC000004CC000004AC000003C
:1000900048C0000046C0000044C0000042C000004C
:1000A00040C000003EC000003CC000003AC000005C
:1000B00038C0000036C0000034C0000032C000006C
:1000C00030C000002EC000002CC000002AC000007C
:1000D00028C0000026C0000024C0000022C000008C
:1000E00020C0000011241FBECFEFD1E2DEBFCDBF84
:1000F00000E00CBF12E0A0E0B2E0E8ECFFE000E0BE
:100100000BBF02C007900D92A636B107D9F722E0C7
:10011000A6E6B2E001C01D92AB38B207E1F7D9D52F
:1001200051C730C187B1807F87B9459A469882E030
:100130008A95F1F700C0479A92E09A95F1F700C0CE
:1001400086B18295807F92E09A95F1F700C047983A
:1001500095E09A95F1F70000479A92E09A95F1F7A9
:1001600000C096B192E09A95F1F700C0479895E0EB
:100170009A95F1F700008823F4F2459887B18F60D3
:1001800087B90895282F22952F708F70611102C0B2
:10019000469801C0469A92E09A95F1F700C0479AB6
:1001A00098B1907F922B98B995E09A95F1F700005D
:1001B000479895E09A95F1F70000479A98B1907F9B
:1001C000892B88B985E08A95F1F70000479895E07A
:1001D0009A95F1F70000A6CF0895CF93C82F2FEF7F
:1001E00086E791E0215080409040E1F700C0000098
:1001F00087B18F6087B93F9A3E9A3D9A88B1807FD8
:1002000088B947984598469800C000C00000479AB2
:10021000419A25E02A95F1F70000479885E08A95F4
:10022000F1F700007FDF60E08C2F8C60ABDF60E0D7
:1002300088E2A8DFCF910895CF93DF93EC01888106
:10024000882331F0219661E09DDF89918111FBCFF8
:10025000DF91CF910895EF92FF920F931F93CF9369
:10026000DF9300D01F921F92CDB7DEB77B01FE0156
:10027000319625E0DF011D922A95E9F7009751F0AC
:1002800035962AE030E0B90155D58293862F972F15
:100290000097C9F7BFEFEB16FB0669F4898181115E
:1002A0001DC0FE01329600E010E00F5F1F4F8191EC
:1002B0008823D9F30FC005E010E00E191F090AC00A
:1002C000F80181918F0161E0805D5CDF0E151F05F3
:1002D000B9F711C0053011051CF00DC000E010E0A9
:1002E00081E090E08C0F9D1F080F191F7E0196E0A2
:1002F000E90EF11CE5CF0F900F900F900F900F902B
:10030000DF91CF911F910F91FF90EF900895883268
:1003100028F46111806460E0806834CF08951F92F2
:100320000F920FB60F9211240BB60F922F933F939B
:100330004F935F936F937F938F939F93AF93BF93ED
:10034000EF93FF9349990BC015B860E081E01ADF85
:1003500060E080E0DCDF8CE192E06EDFFFCFFF91B8
:10036000EF91BF91AF919F918F917F916F915F912D
:100370004F913F912F910F900BBE0F900FBE0F909A
:100380001F9018951F920F920FB60F9211248FEFA6
:1003900080930B01FFCFAC01E1E8F0E09081986021
:1003A000908388EE93E09093890080938800109268
:1003B000850010928400B19A20E030E005C0B19B26
:1003C000FECFB19A2F5F3F4F241735071CF4B19B26
:1003D000F6CFF7CF08951F920F920FB60F92112408
:1003E0000BB60F922F933F934F935F936F937F932F
:1003F0008F939F93AF93BF93EF93FF9384E190E02C
:10040000CADF8091760290917702019690937702ED
:10041000809376028FEF9FEF90931B0280931A02D6
:1004200060E080E074DF82E392E006DF60E089E074
:100430006EDF809176029091770265E070E00BDFCD
:100440004A9B08C083B1803729F4EAE7F0E0808155
:100450008064808382E080938002FF91EF91BF915E
:10046000AF919F918F917F916F915F914F913F914C
:100470002F910F900BBE0F900FBE0F901F901895ED
:100480001F920F920FB60F9211240BB60F922F935B
:100490003F934F935F936F937F938F939F93AF930C
:1004A000BF93EF93FF9384E190E075DF489B02C018
:1004B00080E785B9FF91EF91BF91AF919F918F91A7
:1004C0007F916F915F914F913F912F910F900BBE54
:1004D0000F900FBE0F901F9018950F931F93CF93FF
:1004E000DF93EC0160E080E012DF8BE392E0A4DEBA
:1004F000E1EBF0E08081886080838AE08093B30044
:100500001092B200808182608083B99A60E081E0BD
:1005100039DE00E010E013C061E080E0F8DE64E066
:1005200070E0CE0198DEB99BF7CFB99A0F5F1F4FED
:1005300060E080E0ECDE64E070E0C8018CDE0C1767
:100540001D0754F3DF91CF911F910F91089583E818
:1005500084BD83E085BD80E487BD0895CF93DF939C
:10056000EC0184E090E00DD499838883FC01138230
:100570001282DF91CF910895DB01ED91FC913097CC
:1005800061F0DA018D919C911197938382838D9113
:100590009C91FB01918380830895DA012D913C9118
:1005A0001197FC01318320838D919C91DB018D9308
:1005B0009C9308951F920F920FB60F9211240BB6C1
:1005C0000F922F933F934F935F936F937F938F93EC
:1005D0009F93AF93BF93EF93FF93CF93DF931F92BC
:1005E0001F92CDB7DEB78091780090E0909386029D
:1005F000809385028091790090E0982F88279093CE
:10060000820280938102209185023091860280913E
:10061000810290918202820F931F909375028093C2
:10062000740260E080E073DE82E392E005DE60E069
:1006300089E06DDE809176029091770265E070E04E
:100640000ADE209174023091750280911A02909115
:100650001B022817390740F48091740290917502AB
:1006600090931B0280931A024A9B06C0EAE7F0E0CF
:10067000808180648083E2C0CE0101966FDF20918B
:100680001A0230911B0280911802909119022817CA
:1006900039076CF120911A0230911B0280911602E9
:1006A000909117028217930714F1E981FA8181E092
:1006B00090E091838083AE014F5F5F4F6CE772E003
:1006C0008EE792E059DF8091720290917302019659
:1006D000909373028093720261E080E018DEE981FA
:1006E000FA8161E070E080819181B5DDA7C0209141
:1006F0001A0230911B028091140290911502281762
:1007000039076CF120911A0230911B02809112027C
:10071000909113028217930714F1E981FA8182E024
:1007200090E091838083AE014F5F5F4F6CE772E092
:100730008EE792E021DF8091700290917102019624
:10074000909371028093700261E080E0E0DDE981C6
:10075000FA8161E070E0808191817DDD6FC0209140
:100760001A0230911B0280911002909111022817F9
:1007700039076CF120911A0230911B0280910E0210
:1007800090910F028217930714F1E981FA8183E0B7
:1007900090E091838083AE014F5F5F4F6CE772E022
:1007A0008EE792E0E9DE80916E0290916F020196F1
:1007B00090936F0280936E0261E080E0A8DDE98192
:1007C000FA8161E070E08081918145DD37C0209140
:1007D0001A0230911B0280910C0290910D02281791
:1007E000390764F120911A0230911B0280910A02AC
:1007F00090910B02821793070CF1E981FA8184E052
:1008000090E091838083AE014F5F5F4F6CE772E0B1
:100810008EE792E0B1DE80916C0290916D020196BC
:1008200090936D0280936C0261E080E070DDE9815D
:10083000FA8161E070E0808191810DDD0F900F9071
:10084000DF91CF91FF91EF91BF91AF919F918F91E8
:100850007F916F915F914F913F912F910F900BBEC0
:100860000F900FBE0F901F901895FC018081918111
:10087000DA018D939C93A081B181109741F012967B
:100880008D919C91139791838083892B19F4FB019F
:1008900011821082089580916A0290916B020497F0
:1008A00021F410926B0210926A0280916A02909178
:1008B0006B02019631F483E090E090936B02809399
:1008C0006A02E0916A02F0916B02EE0FFF1FE35A99
:1008D000FD4F808182B920910802309109028091F8
:1008E0006A0290916B02820F931F90936B02809328
:1008F0006A02209108023091090280916802909169
:100900006902820F931F909369028093680280911D
:10091000680290916902893C910531F481E090E090
:1009200090936902809368028091680290916902B5
:10093000892B31F488EC90E09093690280936802EF
:100940008091660290916702019731F480910602CE
:1009500090910702C2CD089584E190E01CCD0895E6
:100960000F931F93CF93DF9321E030E03093670222
:10097000209366022091680230916902EC01C21B4B
:10098000D30BC436D10514F0C85CD109CC398FEF34
:10099000D80714F4C853DF4F8E01DD2324F4002759
:1009A00011270C1B1D0BCE01B801C4D17093090295
:1009B0006093080261E08AE0AADC809108029091CD
:1009C000090262E070E047DC053011057CF080919F
:1009D0000602909107020B974CF0809106029091CD
:1009E00007020397909307028093060227962F979A
:1009F00080F48091060290910702803591054CF4B5
:100A000080910602909107020596909307028093C9
:100A10000602DF91CF911F910F9108951F920F92BF
:100A20000FB60F9211240BB60F922F933F934F9353
:100A30005F936F937F938F939F93AF93BF93EF9346
:100A4000FF9384E190E0A7DC4B99DEC080917602B1
:100A5000909177020197909377028093760260E0FD
:100A600081E090DB60E080E052DC82E392E0E4DB56
:100A700060E089E04CDC809176029091770265E03D
:100A800070E0E9DB4AE752E06CE772E08EE792E063
:100A9000ECDEE0917A02F0917B02808191810197F6
:100AA000F9F48091680290916902C29709F46CC0D0
:100AB00088E385B984E190E06EDC15B88091680226
:100AC00090916902C29751F082E390E049DFE3DE42
:100AD0008091680290916902C297B1F780E785B969
:100AE000E0917A02F0917B0280819181029711F569
:100AF00080916802909169028639910509F46DC070
:100B000088E385B984E190E046DC15B880916802FD
:100B1000909169028639910559F086E990E020DFCD
:100B2000BADE809168029091690286399105A9F731
:100B300080E785B9E0917A02F0917B028081918112
:100B4000039711F5809168029091690284369105AE
:100B500009F443C088E385B984E190E01CDC15B852
:100B600080916802909169028436910559F084E67B
:100B700090E0F6DE90DE8091680290916902843602
:100B80009105A9F780E785B9E0917A02F0917B029F
:100B900080819181049709F58091680290916902A2
:100BA000883C9105D1F088E385B984E190E0F3DBDE
:100BB00015B88091680290916902883C910559F0BE
:100BC00088EC90E0CDDE67DE80916802909169024A
:100BD000883C9105A9F780E785B961E085E097DB5E
:100BE000E0917A02F0917B0261E070E08081918176
:100BF00032DB80917A0290917B025BD182E390E0BC
:100C0000CADB83E080938002FF91EF91BF91AF91A7
:100C10009F918F917F916F915F914F913F912F9114
:100C20000F900BBE0F900FBE0F901F901895E1E62E
:100C3000F0E080E8808381E08083E1E8F0E080817B
:100C40008260808383E0C9DA60E081E09BDA60E063
:100C500080E05DDB85E492E0EFDA10928002109292
:100C60007B0210927A0210928402109283021092F8
:100C70007F0210927E0210927D0210927C021AB8BE
:100C80008FEF87B984B980930A018FE381B9F89413
:100C9000E89AE9E6F0E0808183608083E99A8081C8
:100CA00088608083EA9A808180638083EB9A808168
:100CB00080688083EAE7F0E08081886880838081B3
:100CC00085608083ECE7F0E08081806480837894A5
:100CD0000895ADDF3CDC079B03C0DDDD0799FDCF48
:100CE00088EC90E0909369028093680260E081E074
:100CF00049DA60E080E00BDB83E592E09DDA80E793
:100D000085B980918002823061F018F4813031F031
:100D1000F8CF833049F0853051F0F3CF1092800244
:100D2000F0CF10928002EDCF10928002EACF80E0E7
:100D300090E0089597FB072E16F4009406D077FDF7
:100D400008D00BD007FC05D03EF4909581959F4FBD
:100D50000895709561957F4F0895AA1BBB1B51E1C3
:100D600007C0AA1FBB1FA617B70710F0A61BB70B1B
:100D7000881F991F5A95A9F780959095BC01CD01C0
:100D800008950F931F93CF93DF938230910510F452
:100D900082E090E0E0918902F0918A0220E030E068
:100DA000A0E0B0E0309719F14081518102811381B8
:100DB00048175907C8F08417950769F4109731F060
:100DC00012960C93129713961C9327C000938902D6
:100DD00010938A0222C02115310519F042175307DA
:100DE00018F49A01BD01EF01DF01F801DBCF2115F5
:100DF0003105F9F0281B390B2430310580F48A8144
:100E00009B816115710521F0FB019383828304C0EE
:100E100090938A0280938902FE01329644C0FE01BB
:100E2000E20FF31F81939193225031093983288374
:100E30003AC02091870230918802232B41F42091FF
:100E4000020230910302309388022093870220919E
:100E50000002309101022115310541F42DB73EB752
:100E60004091040250910502241B350BE09187024A
:100E7000F0918802E217F307A0F42E1B3F0B28170E
:100E8000390778F0AC014E5F5F4F2417350748F003
:100E90004E0F5F1F50938802409387028193919376
:100EA00002C0E0E0F0E0CF01DF91CF911F910F9100
:100EB0000895CF93DF93009709F481C0FC01329726
:100EC00013821282A0918902B0918A02109781F454
:100ED00020813181820F931F2091870230918802F7
:100EE0002817390751F5F0938802E093870267C00D
:100EF000ED0120E030E0CE17DF0740F44A815B814E
:100F00009E0141155105F1F0EA01F5CFD383C2836B
:100F100040815181840F951FC817D90759F48881E2
:100F20009981840F951F0296918380838A819B818A
:100F3000938382832115310529F4F0938A02E0938B
:100F400089023DC0E901FB83EA8349915991C40FAD
:100F5000D51FEC17FD0761F480819181840F951FE7
:100F60000296E90199838883828193819B838A8396
:100F7000E0E0F0E012968D919C911397009719F0A4
:100F8000FD01DC01F7CF8D919C9111979D012E5FA2
:100F90003F4F820F931F20918702309188022817BC
:100FA000390769F4309729F410928A021092890265
:100FB00002C013821282B0938802A0938702DF914D
:080FC000CF910895F894FFCFD2
:100FC80000008B02200032000100FF03D003CF0392
:100FD800E002DF028D018C010000FFFF4B696C6CA1
:100FE8002053776974636820416374697661746516
:100FF8006400436F756E7465723D00496E206154DC
:10100800696D657200436F756E7465723D3030307E
:101018003030006920684F6D45203A290036002E8F
:06102800002D0035000060
:00000001FF
