:1000000071C000008EC000008CC00000D2C1000092
:100010001BC2000086C0000084C0000082C0000037
:1000200080C000007EC000007CC000007AC00000DC
:1000300078C0000076C0000074C0000072C00000EC
:1000400070C000006EC000006CC000006AC00000FC
:1000500068C0000066C0000064C0000062C000000C
:1000600060C000005EC000005CC000005AC000001C
:1000700058C00000D1C1000054C0000052C00000B0
:1000800050C000004EC000004CC000004AC000003C
:1000900048C0000046C0000044C0000042C000004C
:1000A00040C000003EC000003CC000003AC000005C
:1000B00038C0000036C0000034C0000032C000006C
:1000C00030C000002EC000002CC000002AC000007C
:1000D00028C0000026C0000024C0000022C000008C
:1000E00020C0000011241FBECFEFD1E2DEBFCDBF84
:1000F00000E00CBF12E0A0E0B2E0ECEDF4E000E0C4
:100100000BBF02C007900D92A831B107D9F722E0CA
:10011000A8E1B2E001C01D92AB31B207E1F702D114
:10012000DBC16ECF87B1807F87B988B1806288B923
:1001300088B18F7B88B982E08A95F1F700C088B1D9
:10014000806888B992E09A95F1F700C086B18295EF
:10015000807F92E09A95F1F700C098B19F7798B9A7
:1001600095E09A95F1F7000098B1906898B992E0FF
:100170009A95F1F700C096B1807892E09A95F1F7E0
:1001800000C098B19F7798B995E09A95F1F7000073
:100190008111D5CF88B18F7D88B987B18F6087B93C
:1001A0000895282F22952F708F70611104C098B187
:1001B0009F7B98B903C098B1906498B992E09A95E2
:1001C000F1F700C098B1906898B998B1907F922BE0
:1001D00098B995E09A95F1F7000098B19F7798B992
:1001E00095E09A95F1F7000098B1906898B998B1A8
:1001F000907F892B88B985E08A95F1F7000088B156
:100200008F7788B995E09A95F1F700008BCF089524
:10021000CF93C82F2FEF86E791E021508040904088
:10022000E1F700C0000087B18F6087B987B18068AF
:1002300087B987B1806487B987B1806287B988B18F
:10024000807F88B988B18F7788B988B18F7D88B968
:1002500088B18F7B88B900C000C0000088B1806879
:1002600088B988B1826088B925E02A95F1F7000045
:1002700088B18F7788B985E08A95F1F7000052DF61
:1002800060E08C2F8C608DDF60E088E28ADFCF91A8
:100290000895CF93DF93EC0103C061E082DF2196E4
:1002A00088818111FACFDF91CF910895883228F4A7
:1002B0006111806460E0806874CF0895AC01E1E86A
:1002C000F0E080818260808380818860808380ED1F
:1002D00097E0909389008093880010928500109297
:1002E000840086B3826086BB20E030E007C0B19B0B
:1002F000FECF96B3926096BB2F5F3F4F2417350712
:10030000B4F3E1E8F0E080818D7F8083089588E791
:1003100085B9089583E884BD83E085BD8091180286
:1003200087BD0895E1E6F0E080E8808381E0808386
:10033000F8948DB384608DBBE9E6F0E08081806342
:1003400080838DB388608DBB808180688083CAE79D
:10035000D0E0888180688883888188608883ECE722
:10036000F0E08081806680838FEF87B984B98093C5
:100370000A01789483E04CDFCDDF88818064888334
:1003800080E180930B018091190290911A02892BD0
:10039000B9F38091180287BD10921A0210921902C7
:1003A000EAE7F0E080818064808380E380930B0142
:1003B000E7CF1F920F920FB60F9211240BB60F9238
:1003C0002F933F934F935F936F937F938F939F935D
:1003D000AF93BF93EF93FF934A9B0BC015B860E0B8
:1003E00081E0DFDE60E080E061DF82E092E051DF0B
:1003F000FFCFFF91EF91BF91AF919F918F917F912F
:100400006F915F914F913F912F910F900BBE0F9085
:100410000FBE0F901F9018951F920F920FB60F925C
:1004200011248F939F93809179008093180281E02B
:1004300090E090931A02809319029F918F910F90F0
:100440000FBE0F901F9018951F920F920FB60F922C
:1004500011240BB60F922F933F934F935F936F939B
:100460007F938F939F93AF93BF93EF93FF934B999A
:1004700020C04DDF84E190E021DF80910002909167
:100480000102019749F488E385B981E090E09093F7
:1004900001028093000208C088E385B981E090E002
:1004A00090930102809300024B9BFECF84E190E089
:1004B00005DFFF91EF91BF91AF919F918F917F9158
:1004C0006F915F914F913F912F910F900BBE0F90C5
:0C04D0000FBE0F901F901895F894FFCFFE
:1004DC0001004B696C6C205377697463682041632D
:0804EC00746976617465640017
:00000001FF
