:1000000071C00000E4C10000EEC2000030C2000078
:1000100073C2000087C0000085C0000083C00000DC
:1000200081C000007FC000007DC000007BC00000D8
:1000300079C0000077C0000075C0000073C00000E8
:1000400071C000006FC000006DC000006BC00000F8
:1000500069C0000067C0000065C0000063C0000008
:1000600061C000005FC000005DC000005BC0000018
:1000700059C0000073C4000055C0000053C0000008
:1000800043C300004FC000004DC000004BC0000043
:1000900049C0000047C0000045C0000043C0000048
:1000A00041C000003FC000003DC000003BC0000058
:1000B00039C0000037C0000035C0000033C0000068
:1000C00031C000002FC000002DC000002BC0000078
:1000D00029C0000027C0000025C0000023C0000088
:1000E00021C0000011241FBECFEFD1E2DEBFCDBF83
:1000F00000E00CBF12E0A0E0B2E0E8E3F1E100E0D4
:100100000BBF02C007900D92A235B107D9F722E0CC
:10011000A2E5B2E001C01D92AB37B207E1F775D599
:100120000C949A082BC187B1807F87B988B180620F
:1001300088B988B18F7B88B982E08A95F1F700C0D1
:1001400088B1806888B992E09A95F1F700C086B1CD
:100150008295807F92E09A95F1F700C098B19F77E1
:1001600098B995E09A95F1F7000098B1906898B920
:1001700092E09A95F1F700C096B1807892E09A9556
:10018000F1F700C098B19F7798B995E09A95F1F78B
:1001900000008111D5CF88B18F7D88B987B18F607C
:1001A00087B90895282F22952F708F70611104C090
:1001B00098B19F7B98B903C098B1906498B992E0C8
:1001C0009A95F1F700C098B1906898B998B1907F6E
:1001D000922B98B995E09A95F1F7000098B19F7726
:1001E00098B995E09A95F1F7000098B1906898B9A0
:1001F00098B1907F892B88B985E08A95F1F7000046
:1002000088B18F7788B995E09A95F1F700008BCF88
:100210000895CF93C82F2FEF86E791E021508040BB
:100220009040E1F700C0000087B18F6087B987B1C7
:10023000806887B987B1806487B987B1806287B9E0
:1002400088B1807F88B988B18F7788B988B18F7D70
:1002500088B988B18F7B88B900C000C0000088B120
:10026000806888B988B1826088B925E02A95F1F75D
:10027000000088B18F7788B985E08A95F1F7000092
:1002800052DF60E08C2F8C608DDF60E088E28ADFD7
:10029000CF910895CF93DF93EC0103C061E082DF3B
:1002A000219688818111FACFDF91CF910895EF9245
:1002B000FF920F931F93CF93DF9300D01F921F9253
:1002C000CDB7DEB77B01FE01319625E0DF011D923F
:1002D0002A95E9F724E030E00EC06AE070E0E2D54C
:1002E000E1E0F0E0EC0FFD1FE20FF31F8083862FAB
:1002F000972F21503109009781F7BFEFEB16FB06CE
:1003000081F403C00F5F1F4F02C000E010E0E1E086
:10031000F0E0EC0FFD1FE00FF11F2081222391F38D
:1003200004C005E010E00E191F09992384F461E070
:100330008DE238DF0CC0E1E0F0E0EC0FFD1FE00FD4
:10034000F11F808161E0805D2DDF0F5F1F4F053061
:1003500011058CF30F900F900F900F900F90DF917D
:10036000CF911F910F91FF90EF900895883228F45C
:100370006111806460E0806815CF08951F920F922C
:100380000FB60F9211248FEF80930B01FFCFE1E89E
:10039000F0E020812860208328EE33E0309389004C
:1003A00020938800109285001092840026B322606A
:1003B00026BB20E030E007C0B19B05C046B34260D9
:1003C00046BB2F5F3F4F28173907B4F308951F929C
:1003D0000F920FB60F9211240BB60F922F933F93EB
:1003E0004F935F936F937F938F939F93AF93BF933D
:1003F000EF93FF9384E190E0CADF489B25C060E063
:1004000081E0D0DE60E080E0B1DF80E192E042DFB9
:10041000E1E9F0E08081886080838FEF9FEF909327
:100420009900809398001092950010929400A1E793
:10043000B0E08C9182608C9380818560808388B3EA
:10044000826088BB4899FECFFF91EF91BF91AF9139
:100450009F918F917F916F915F914F913F912F91DC
:100460000F900BBE0F900FBE0F901F9018951F920C
:100470000F920FB60F9211240BB60F922F933F934A
:100480004F935F936F937F938F939F93AF93BF939C
:10049000EF93FF9381E090E07ADF80916602909184
:1004A0006702019690936702809366028FEF9FEF39
:1004B00090930F0280930E024A9B0BC0809106021C
:1004C00090910702019729F4EAE7F0E080818064C7
:1004D0008083FF91EF91BF91AF919F918F917F9119
:1004E0006F915F914F913F912F910F900BBE0F90A5
:1004F0000FBE0F901F9018951F920F920FB60F927C
:1005000011240BB60F922F933F934F935F936F93EA
:100510007F938F939F93AF93BF93EF93FF9384E168
:1005200090E035DF4B9912C080915A0290915B02A6
:10053000019690935B0280935A0281E090E0909341
:1005400009028093080283E080937002FF91EF918B
:10055000BF91AF919F918F917F916F915F914F91DB
:100560003F912F910F900BBE0F900FBE0F901F90D9
:100570001895E1EAF0E020812860208324E630E04D
:100580003093A9002093A8001092A5001092A40017
:1005900020812260208329B3226029BB20E030E043
:1005A00007C0C99B05C049B3426049BB2F5F3F4F9D
:1005B00028173907B4F3089583E884BD83E085BD27
:1005C0008AE587BD089580E785B981E090E0909342
:1005D000070280930602089588EF85B910920702FA
:1005E0001092060208951F920F920FB60F921124D7
:1005F0000BB60F922F933F934F935F936F937F931D
:100600008F939F93AF93BF93EF93FF9384E190E019
:10061000BEDE49994DC08091060290910702019774
:1006200009F046C084E190E0B2DED6DF1092070206
:100630001092060260E081E0B5DD60E080E096DEC9
:100640008AE192E027DE61E080E090DE8091620244
:100650009091630262E070E02ADE61E083E086DE72
:10066000809160029091610262E070E020DE61E0C2
:1006700086E07CDE80915E0290915F0262E070E035
:1006800016DE61E089E072DE80915C0290915D028D
:1006900062E070E00CDE61E08CE068DE8091660272
:1006A0009091670262E070E002DE499BFECF19C0C4
:1006B000499917C08091060290910702892B89F40D
:1006C00084E190E064DE7FDF60E081E06BDD60E08C
:1006D00080E04CDE89E292E0DDDD10927002499B01
:1006E000FECFFF91EF91BF91AF919F918F917F913D
:1006F0006F915F914F913F912F910F900BBE0F9093
:100700000FBE0F901F9018951F920F920FB60F9269
:10071000112462DF15B860E081E044DD60E080E034
:1007200025DE81E392E0B6DD80ED97E030DE60E02B
:1007300081E038DD60E080E019DE86E392E0AADD4A
:1007400061E080E013DE809162029091630262E0DA
:1007500070E0ADDD61E083E009DE809160029091A0
:10076000610262E070E0A3DD61E086E0FFDD809180
:100770005E0290915F0262E070E099DD61E089E0E5
:10078000F5DD80915C0290915D0262E070E08FDDAA
:10079000FFCF20910C0230910D0280915602909172
:1007A0005702820F931F9093570280935602209115
:1007B0000C0230910D028091540290915502820FEB
:1007C000931F90935502809354028091560290910A
:1007D0005702049721F4109257021092560280910A
:1007E000560290915702019631F483E090E0909385
:1007F000570280935602E0915602F0915702EE0F95
:10080000FF1FE75BFD4F808182B980915402909178
:100810005502893C910531F481E090E090935502B6
:10082000809354028091540290915502892B31F4A7
:1008300088EC90E09093550280935402809152028C
:1008400090915302019731F480910A0290910B022A
:1008500090CE089584E190E09ACD089521E030E0B3
:10086000309353022093520220915402309155024A
:10087000821B930B9C018436910514F0285C31098E
:100880002C398FEF380714F428533F4FF9013323E5
:1008900024F4EE27FF27E21BF30BC901BF0102D3AB
:1008A00070930D0260930C0235977CF080910A02E0
:1008B00090910B02C3974CF080910A0290910B0229
:1008C000089790930B0280930A02275F3F4F2331D2
:1008D000310580F480910A0290910B02883C9105C9
:1008E0004CF480910A0290910B020A9690930B02AD
:1008F00080930A020895FC0111821082FB0111828B
:1009000010820895CF93DF93EC0184E090E0F1D260
:1009100099838883FC0113821282DF91CF9108951D
:10092000DB01ED91FC91309761F0DA018D919C91A2
:100930001197938382838D919C91FB019183808396
:100940000895DA012D913C911197FC0131832083A8
:100950008D919C91DB018D939C9308951F920F9232
:100960000FB60F9211240BB60F922F933F934F9314
:100970005F936F937F938F939F93AF93BF93EF9307
:10098000FF93CF93DF931F921F92CDB7DEB7809175
:10099000780090E090937602809375022091790020
:1009A00080E0922F909372028093710220917502E1
:1009B000309176028091710290917202820F931FA2
:1009C00090936502809364022091640230916502E5
:1009D00080910E0290910F022817390740F4809100
:1009E00064029091650290930F0280930E024A9BDD
:1009F0000CC08091060290910702019731F4EAE75A
:100A0000F0E080818064808375C0CE0101967ADF3A
:100A100080910E0290910F029923B4F080910E0202
:100A200090910F028D3891407CF4E981FA8181E048
:100A300090E091838083AE014F5F5F4F6CE672E080
:100A40008EE692E06DDF56C080910E0290910F020B
:100A50008D389140B4F080910E0290910F0288344D
:100A600093407CF4E981FA8182E090E09183808375
:100A7000AE014F5F5F4F6CE672E08EE692E050DFB2
:100A800039C080910E0290910F0288349340B4F0E7
:100A900080910E0290910F02843C93407CF4E98196
:100AA000FA8183E090E091838083AE014F5F5F4FD6
:100AB0006CE672E08EE692E033DF1CC080910E029D
:100AC00090910F02843C9340ACF080910E02909183
:100AD0000F028115944074F4E981FA8184E090E07A
:100AE00091838083AE014F5F5F4F6CE672E08EE6CC
:100AF00092E016DF0F900F90DF91CF91FF91EF9171
:100B0000BF91AF919F918F917F916F915F914F9125
:100B10003F912F910F900BBE0F900FBE0F901F9023
:100B20001895FC0180819181DA018D939C93A081BD
:100B3000B181109731F012968D919C91139791830A
:100B4000808380819181892B19F4FB0111821082AD
:100B50000895E1E6F0E080E8808381E08083E1E8C9
:100B6000F0E0808182608083E1EAF0E08081826051
:100B7000808383E04EDB60E081E014DB60E080E0B6
:100B8000F5DB82E492E086DB1092700210926B0239
:100B900010926A0210927402109273026CE672E074
:100BA0008EE692E0A8DE1AB88FEF87B984B98093F9
:100BB0000A018FE381B9F8948DB381608DBBE9E6BA
:100BC000F0E08081836080838DB382608DBB808103
:100BD000886080838DB384608DBB808180638083D7
:100BE0008DB388608DBB808180688083EAE7F0E008
:100BF000808188688083808185608083ECE7F0E075
:100C000080818064808378940895CF93DF93A1DFFF
:100C1000D3DC01C0BEDD0799FDCF84EF91E0B7DBE7
:100C20008FEF9FEF90930D0280930C02C0E0D0E015
:100C300005C0AFDD219684EF91E0A9DBC430D1057A
:100C4000C4F388EC90E0909355028093540260E0E6
:100C500081E0A8DA60E080E089DB89E292E01ADBDB
:100C6000B2DC80917002823069F018F4813039F082
:100C7000F8CF833051F0853009F40FC1F2CF1092D4
:100C80007002EFCF10927002ECCF80910802909129
:100C90000902019709F0E2C04AE652E06CE672E010
:100CA0008EE692E03EDF809158029091590248977B
:100CB00058F480915802909159028E519F4F909311
:100CC0000B0280930A0206C08AEF90E090930B0219
:100CD00080930A02E0916A02F0916B028081918117
:100CE0008130910529F5809162029091630201960D
:100CF0009093630280936202809154029091550216
:100D0000C29709F490C068DC1092070210920602A4
:100D100004C082E390E0A2DD3CDD8091540290911A
:100D20005502C297B1F74FDC81E090E030DB7BC029
:100D30008230910539F580916002909161020196AF
:100D400090936102809360028091540290915502C9
:100D50008639910509F467C03FDC109207021092B2
:100D6000060204C086E990E079DD13DD809154022B
:100D70009091550286399105A9F725DC81E090E034
:100D800006DB51C08330910539F580915E02909168
:100D90005F02019690935F0280935E0280915402FD
:100DA000909155028436910509F43DC015DC1092EE
:100DB00007021092060204C084E690E04FDDE9DCF1
:100DC000809154029091550284369105A9F7FBDB7E
:100DD00081E090E0DCDA27C0049729F580915C027D
:100DE00090915D02019690935D0280935C028091E8
:100DF000540290915502883C9105A9F0EDDB1092C8
:100E000007021092060204C088EC90E027DDC1DCE6
:100E10008091540290915502883C9105A9F7D3DB4B
:100E200081E090E0B4DA80916602909167020197C8
:100E300090936702809366028091580290915902C4
:100E40000196909359028093580280916A02909182
:100E50006B02E7D0109209021092080220915A0208
:100E600030915B02809158029091590228173907FE
:100E700019F410927002F5CE20915A0230915B0263
:100E800080915802909159022817390719F083E090
:100E90008093700210927002E4CE80E090E0DF91C7
:100EA000CF91089597FB072E16F4009406D077FD96
:100EB00008D00BD007FC05D03EF4909581959F4F4C
:100EC0000895709561957F4F0895AA1BBB1B51E152
:100ED00007C0AA1FBB1FA617B70710F0A61BB70BAA
:100EE000881F991F5A95A9F780959095BC01CD014F
:100EF00008950F931F93CF93DF938230910510F4E1
:100F000082E090E0E0917902F0917A0220E030E016
:100F1000A0E0B0E0309719F1408151810281138146
:100F200048175907C8F08417950769F4109731F0EE
:100F300012960C93129713961C9327C00093790274
:100F400010937A0222C02115310519F04217530778
:100F500018F49A01BD01EF01DF01F801DBCF211583
:100F60003105F9F0281B390B2430310580F48A81D2
:100F70009B816115710521F0FB019383828304C07D
:100F800090937A0280937902FE01329644C0FE016A
:100F9000E20FF31F81939193225031093983288303
:100FA0003AC02091770230917802232B41F42091AE
:100FB000020230910302309378022093770220914D
:100FC0000002309101022115310541F42DB73EB7E1
:100FD0004091040250910502241B350BE0917702E9
:100FE000F0917802E217F307A0F42E1B3F0B2817AD
:100FF000390778F0AC014E5F5F4F2417350748F092
:101000004E0F5F1F50937802409377028193919324
:1010100002C0E0E0F0E0CF01DF91CF911F910F918E
:101020000895CF93DF93009709F481C0FC013297B4
:1010300013821282A0917902B0917A02109781F402
:1010400020813181820F931F2091770230917802A5
:101050002817390751F5F0937802E093770267C0BB
:10106000ED0120E030E0CE17DF0740F44A815B81DC
:101070009E0141155105F1F0EA01F5CFD383C283FA
:1010800040815181840F951FC817D90759F4888171
:101090009981840F951F0296918380838A819B8119
:1010A000938382832115310529F4F0937A02E0932A
:1010B00079023DC0E901FB83EA8349915991C40F4C
:1010C000D51FEC17FD0761F480819181840F951F76
:1010D0000296E90199838883828193819B838A8325
:1010E000E0E0F0E012968D919C911397009719F033
:1010F000FD01DC01F7CF8D919C9111979D012E5F31
:101100003F4F820F931F209177023091780228176A
:10111000390769F4309729F410927A021092790213
:1011200002C013821282B0937802A0937702DF91FB
:08113000CF910895F894FFCF60
:1011380000007B0220000100010011000100FFFFF8
:1011480052616D7020446F776E00413A20533A2007
:10115800573A20423A20503A00536F7274696E67CA
:1011680000446F6E6500413A20533A20573A2042B6
:101178003A00486F6D696E670036002E002D003505
:02118800000065
:00000001FF
