:1000000071C000008EC000008AC10000E5C1000080
:1000100032C2000086C0000084C0000082C0000020
:1000200080C000007EC000007CC000007AC00000DC
:1000300078C0000076C0000074C0000072C00000EC
:1000400070C000006EC000006CC000006AC00000FC
:1000500068C0000066C0000064C0000062C000000C
:1000600060C000005EC000005CC000005AC000001C
:1000700058C000004FC2000054C0000052C0000031
:1000800050C000004EC000004CC000004AC000003C
:1000900048C0000046C0000044C0000042C000004C
:1000A00040C000003EC000003CC000003AC000005C
:1000B00038C0000036C0000034C0000032C000006C
:1000C00030C000002EC000002CC000002AC000007C
:1000D00028C0000026C0000024C0000022C000008C
:1000E00020C0000011241FBECFEFD1E2DEBFCDBF84
:1000F00000E00CBF12E0A0E0B2E0E6EDF7E000E0C7
:100100000BBF02C007900D92AA35B107D9F722E0C4
:10011000AAE5B2E001C01D92A336B207E1F715D3FC
:1001200058C330C187B1807F87B9459A469882E02D
:100130008A95F1F700C0479A92E09A95F1F700C0CE
:1001400086B18295807F92E09A95F1F700C047983A
:1001500095E09A95F1F70000479A92E09A95F1F7A9
:1001600000C096B192E09A95F1F700C0479895E0EB
:100170009A95F1F700008823F4F2459887B18F60D3
:1001800087B90895282F22952F708F70611102C0B2
:10019000469801C0469A92E09A95F1F700C0479AB6
:1001A00098B1907F922B98B995E09A95F1F700005D
:1001B000479895E09A95F1F70000479A98B1907F9B
:1001C000892B88B985E08A95F1F70000479895E07A
:1001D0009A95F1F70000A6CF0895CF93C82F2FEF7F
:1001E00086E791E0215080409040E1F700C0000098
:1001F00087B18F6087B93F9A3E9A3D9A88B1807FD8
:1002000088B947984598469800C000C00000479AB2
:10021000419A25E02A95F1F70000479885E08A95F4
:10022000F1F700007FDF60E08C2F8C60ABDF60E0D7
:1002300088E2A8DFCF910895CF93DF93EC01888106
:10024000882331F0219661E09DDF89918111FBCFF8
:10025000DF91CF910895EF92FF920F931F93CF9369
:10026000DF9300D01F921F92CDB7DEB77B01FE0156
:10027000319625E0DF011D922A95E9F7009751F0AC
:1002800035962AE030E0B9017DD28293862F972FF0
:100290000097C9F7BFEFEB16FB0669F4898181115E
:1002A0001DC0FE01329600E010E00F5F1F4F8191EC
:1002B0008823D9F30FC005E010E00E191F090AC00A
:1002C000F80181918F0161E0805D5CDF0E151F05F3
:1002D000B9F711C0053011051CF00DC000E010E0A9
:1002E00081E090E08C0F9D1F080F191F7E0196E0A2
:1002F000E90EF11CE5CF0F900F900F900F900F902B
:10030000DF91CF911F910F91FF90EF900895883268
:1003100028F46111806460E0806834CF08951F92F2
:100320000F920FB60F9211240BB60F922F933F939B
:100330004F935F936F937F938F939F93AF93BF93ED
:10034000EF93FF9349990BC015B860E081E01ADF85
:1003500060E080E0DCDF82E192E06EDFFFCFFF91C2
:10036000EF91BF91AF919F918F917F916F915F912D
:100370004F913F912F910F900BBE0F900FBE0F909A
:100380001F9018951F920F920FB60F9211240F9085
:100390000FBE0F901F901895AC01E1E8F0E090813E
:1003A0009860908388EE93E0909389008093880012
:1003B0001092850010928400B19A20E030E005C0D0
:1003C000B19BFECFB19A2F5F3F4F241735071CF426
:1003D000B19BF6CFF7CF08951F920F920FB60F92F1
:1003E00011240BB60F922F933F934F935F936F930C
:1003F0007F938F939F93AF93BF93EF93FF9384E18A
:1004000090E0CADF80915C0290915D02019690932A
:100410005D0280935C028FEF9FEF909311028093B7
:10042000100260E089E073DF80915C0290915D02D0
:1004300065E070E010DF4A9B05C0EAE7F0E08081EC
:100440008064808384E190E0A7DF82E080935E0295
:10045000FF91EF91BF91AF919F918F917F916F919C
:100460005F914F913F912F910F900BBE0F900FBE58
:100470000F901F9018951F920F920FB60F92112494
:100480000BB60F922F933F934F935F936F937F938E
:100490008F939F93AF93BF93EF93FF9384E190E08B
:1004A0007BDF4B991FC083E080935E0280915C02EA
:1004B00090915D02019790935D0280935C0260E0F1
:1004C00080E025DF88E292E0B7DE60E089E01FDFB0
:1004D00080915C0290915D0265E070E0BCDE82E399
:1004E00090E05ADF4B9BFECF84E190E055DFFF9117
:1004F000EF91BF91AF919F918F917F916F915F919C
:100500004F913F912F910F900BBE0F900FBE0F9008
:100510001F9018951F920F920FB60F9211240BB6D1
:100520000F922F933F934F935F936F937F938F938C
:100530009F93AF93BF93EF93FF938091780090E0E8
:1005400090936202809361028091790090E0982FED
:1005500088279093600280935F022091610230911E
:10056000620280915F0290916002820F931F9093CC
:100570005B0280935A0220915A0230915B02809173
:100580001002909111022817390758F480915A02ED
:1005900090915B02909311028093100284E190E0AD
:1005A000FBDE84E190E0F8DE60E081E0EBDD4A9B79
:1005B00005C0EAE7F0E0808180648083209110022A
:1005C0003091110280910E0290910F022817390785
:1005D00094F0209110023091110280910C029091C0
:1005E0000D02821793073CF061E080E090DE81E32A
:1005F00092E022DE56C020911002309111028091CB
:100600000A0290910B022817390794F020911002EA
:10061000309111028091080290910902821793078C
:100620003CF061E080E073DE8AE392E005DE39C0F1
:1006300020911002309111028091060290910702E0
:100640002817390794F020911002309111028091FF
:10065000040290910502821793073CF061E080E06C
:1006600056DE80E492E0E8DD1CC02091100230915B
:1006700011028091020290910302281739078CF031
:10068000209110023091110280910002909101029C
:100690008217930734F061E080E039DE86E492E06F
:1006A000CBDDFF91EF91BF91AF919F918F917F91A2
:1006B0006F915F914F913F912F910F900BBE0F90D3
:1006C0000FBE0F901F90189583E884BD83E085BD11
:1006D00080EA87BD0895E1E6F0E080E8808381E06C
:1006E0008083E1E8F0E080818260808383E075DDD3
:1006F00060E081E047DD60E080E009DE8CE492E0CC
:100700009BDD10925E02F89480EF8AB98FEF87B973
:10071000E99AE9E6F0E0808188608083EA9A808146
:1007200080638083EB9A808180688083EAE7F0E0D1
:10073000808188688083808185608083ECE7F0E039
:1007400080818064808378940895C5DFBDDF80E771
:1007500085B980915E02823061F018F4813031F009
:10076000F8CF833049F0853051F0F3CF10925E021C
:10077000F0CF10925E02EDCF10925E02EACF80E0E1
:1007800090E0089597FB072E16F4009406D077FDAD
:1007900008D00BD007FC05D03EF4909581959F4F73
:1007A0000895709561957F4F0895AA1BBB1B51E179
:1007B00007C0AA1FBB1FA617B70710F0A61BB70BD1
:1007C000881F991F5A95A9F780959095BC01CD0176
:0607D0000895F894FFCF2C
:1007D600FF03D203D103530352038D018C010000A2
:1007E600FFFF4B696C6C2053776974636820416323
:1007F6007469766174656400436F756E7465723DE5
:1008060000416C756D696E756D00537465656C009D
:10081600576869746500426C61636B00436F756E5F
:0A0826007465723D30303030300050
:00000001FF
