S01700004763634170706C69636174696F6E312E737265635B
S113000071C0000081C000007FC000007DC00000FE
S11300107BC0000079C0000077C0000075C00000FC
S113002073C0000071C000006FC000006DC000000C
S11300306BC0000069C0000067C0000065C000001C
S113004063C0000061C000005FC000005DC000002C
S11300505BC0000059C0000057C0000055C000003C
S113006053C0000051C000004FC000004DC000004C
S11300704BC0000049C0000047C0000045C000005C
S113008043C0000041C000003FC000003DC000006C
S11300903BC0000039C0000037C0000035C000007C
S11300A033C0000031C000002FC000002DC000008C
S11300B02BC0000029C0000027C0000025C000009C
S11300C023C0000021C000001FC000001DC00000AC
S11300D01BC0000019C0000017C0000015C00000BC
S11300E013C0000011241FBECFEFD1E2DEBFCDBF8D
S11300F000E00CBF22E0A0E0B2E001C01D92A030FD
S1130100B207E1F781D0BDC07BCFE1E8F0E0208108
S11301102860208328EE33E0309389002093880000
S11301201092850010928400EFE6F0E020812260B6
S1130130208326B3226026BB20E030E007C0B19BB9
S113014005C046B3426046BB2F5F3F4F28173907AF
S1130150B4F308950F931F93CF93DF938C01C0E002
S1130160D0E015C080E382B984E190E0CEDF86E080
S113017082B984E190E0C9DF88E282B984E190E049
S1130180C4DF85E082B984E190E0BFDF2196C80135
S113019011230CF403969595879595958795C81723
S11301A0D90704F3DF91CF911F910F9108950F9315
S11301B01F93CF93DF938C01C0E0D0E015C085E09E
S11301C082B984E190E0A1DF88E282B984E190E021
S11301D09CDF86E082B984E190E097DF80E382B916
S11301E084E190E092DF2196C80111230CF4039678
S11301F09595879595958795C817D90704F3DF9149
S1130200CF911F910F910895E1E6F0E090E890837B
S113021081E08083E1E8F0E08081826080838FEF79
S113022081B987B980BB84B983E884BD83E085BD87
S113023082E080936E0097BD80E190E08BDF88EED2
S113024093E063DF80E290E085DF88EE93E05DDF9A
S113025084E690E07FDF88EE93E057DF80E190E072
S1130260A6DF88EE93E051DF80E290E0A0DF88EE25
S113027093E04BDF84E690E09ADF88EE93E045DF7D
S1090280DBCFF894FFCF70
S9030000FC
